:1000000080315528303430347E1480314E01161E34
:100010000A280B2813280C1E0E280F2813289731A6
:100020002827803153280B1F162817285328191FFB
:100030001A281B2826280F1F1E281F2826284201A1
:1000400057088A0056080A0080315328991F29282A
:100050002A2835288F1F2D282E283528420155089B
:100060008A0054080A0080315328191E382839287C
:1000700044280F1E3C283D28442842014D088A0090
:100080004C080A0080315328991E472848285328D5
:100090008F1E4B284C28532842014B088A004A08DF
:1000A0000A00803153287E100900803157288031A2
:1000B00002208031EE00803103208031EF00F330E8
:1000C0008400883085005830860001308700113068
:1000D000973112278031FC014830840000308500C0
:1000E000263097310C278031A03084000030850005
:1000F0004D3097310C27803120308400013085004D
:10010000243097310C278031A030840001308500E5
:10011000403097310C278031203084000230850038
:10012000503097310C278031A03084000230850098
:10013000503097310C278031203084000330850007
:10014000503097310C2780317E1040018031A82833
:100150008931572180312030F1000330F2005030D6
:10016000F3008931E42180318B170B1784316E2421
:1001700080319631B8268031963148268031013A57
:10018000031DC328C42850299631A7268031013A7F
:10019000031DCB28CC28E4284E018C128931412143
:1001A00080318D31AA2580318931042180318B3114
:1001B0008A2380318E3137268031BC288831002057
:1001C000803181317D2180318A317F228031003A36
:1001D000031DEB28EC28DE28312900308400903004
:1001E0008500013F8A00003F0A0080314201E9009A
:1001F00040015708203E860002308700420169080E
:10020000810040015708203E8600023087000D30F3
:10021000010603190C290D291E295708203E8600C6
:10022000023087000A3001060319172918291E29F0
:100230004F305706031D1D291E292B295708203E24
:1002400086000230870081012030823149228031CE
:100250004001D701312901304201E900690840011C
:10026000D7070630840090308500013F8A00003FA8
:100270000A008131003A031D3E293F29ED28BC28A0
:100280008831002080314201EA006A08F100023022
:10029000840090308500013F8A00003F0A008131D0
:1002A0008A317F228031003A031D5729582940297D
:1002B0006C290030840090308500013F8A00003FA7
:1002C0000A008131F6006830840090308500013FDB
:1002D0008A00003F0A00813106308400903085009A
:1002E000013F8A00003F0A008131003A031D79294D
:1002F0007A295929BC28803155284001B300292A80
:100300000230EC00482A3308EA000330EC00482AA7
:100310003A303302031C8D298E29972933085F391F
:10032000C93EAD00FF3003180030AE009E293308EF
:10033000D03EAD00FF3003180030AE002D08EB00BA
:100340000430EC00482A3A303302031CA829A929BA
:10035000B22933085F39C93EAF00FF3003180030BF
:10036000B000B9293308D03EAF00FF300318003089
:10037000B0006B08AB000330AB35FF3E031DBC295A
:100380002B352F07EB000530EC00482A3A303302BA
:10039000031CCB29CC29D52933085F39C93ED200AB
:1003A000FF3003180030D300DC293308D03ED200E0
:1003B000FF3003180030D3000130EB026B08031D3F
:1003C000E229E329E529EC01482A0630EC00482A15
:1003D0003A303302031CED29EE29F72933085F393F
:1003E000C93EB100FF3003180030B200FE293308C7
:1003F000D03EB100FF3003180030B2005308AC000B
:100400005208AB00AB0EAC0EF030AC052B080F3928
:10041000AC04F030AB0531082B07D20032082C3D7C
:10042000D3005208A7006A088E31D62681310130E8
:100430004001EB026B08031D1E2A1F2AC329E32972
:100440005B303306031D252A262A482AEC01EC0AD4
:10045000482A6C08AB00AC012C08003A0319312A79
:10046000202A2B08003A0319202A013A031980296F
:10047000033A03198329013A03198829073A031912
:10048000A329013A0319C629033A0319E829202AA6
:100490000800F9007908F1000230F2008A311522D3
:1004A000823171080907F8005B30F600683084007B
:1004B00090308500013F8A00003F0A0082314001F0
:1004C0006D080F39583E8600013087000108F6009C
:1004D0006830840090308500013F8A00003F0A00A8
:1004E00082310130F70077084001ED075330F60004
:1004F0006830840090308500013F8A00003F0A0088
:1005000082317808F7000430F736890B842A77089F
:100510000F39583E8600013087000108F600683028
:10052000840090308500013F8A00003F0A0082313C
:1005300078080F39583E8600013087000108F60020
:100540006830840090308500013F8A00003F0A0037
:100550008231DE2A79088600023087000108F70020
:100560000430F736890BB12A77080F39583E8600D8
:10057000013087000108F600683084009030850063
:10058000013F8A00003F0A0082317908860002306C
:10059000870001080F39583E8600013087000108A6
:1005A000F6006830840090308500013F8A00003FEB
:1005B0000A0082310130F7007708F90779088600D0
:1005C000023087000108031DE62AE72AAA2A5D30C7
:1005D000F6006830840090308500013F8A00003FBB
:1005E0000A0082310800FA005B30F60068308400AF
:1005F00090308500013F8A00003F0A0082314001AF
:100600006D080F39583E8600013087000108F6005A
:100610006830840090308500013F8A00003F0A0066
:1006200083310130F80078084001ED077A08F600C0
:100630006830840090308500013F8A00003F0A0046
:1006400083317708F100F2018A3115228231710875
:10065000F8007208F9000430F936F80C890B2C2BDD
:1006600078080F39583E8600013087000108F600EF
:100670006830840090308500013F8A00003F0A0006
:1006800083317708F100F2018A3115228231710835
:100690000F39583E8600013087000108F6006830A7
:1006A000840090308500013F8A00003F0A008331BA
:1006B0006B2B7708860087010108F60068308400FC
:1006C00090308500013F8A00003F0A0083310130ED
:1006D000F8007808F7077708860087010108031DEE
:1006E000722B732B592B5D30F600683084009030EC
:1006F0008500013F8A00003F0A0083310800F601AF
:100700006A30840090308500013F8A00003F0A0073
:100710008331F3006A30840090308500013F8A0005
:10072000003F0A008331F4006A3084009030850075
:10073000013F8A00003F0A008331F500BE2B4F3095
:100740007406031DA42BA52BC62B4B307506031D69
:10075000AA2BAB2BC62BF601F60AC62B72307406F9
:10076000031DB32BB42BC62B72307506031DB92B9A
:10077000BA2BC62BF601C62B0030062C7308413A63
:1007800003199F2B043A0319AE2BBC2B6A3084004B
:1007900090308500013F8A00003F0A0083316A30B3
:1007A000840090308500013F8A00003F0A008331B9
:1007B0006A30840090308500013F8A00003F0A00C3
:1007C00083316A30840090308500013F8A00003F09
:1007D0000A0083316A30840090308500013F8A002E
:1007E000003F0A0083316A30840090308500013F69
:1007F0008A00003F0A0083316A308400903085000F
:10080000013F8A00003F0A008431760808006A3000
:10081000840090308500013F8A00003F0A00843147
:100820004101EF0040016503031D172C182C552CC6
:10083000253041016F06031D1E2C1F2C342C400156
:10084000E5014A0886004B08870081014D08C20077
:100850004C08C1007830840090308500013F8A0048
:10086000003F0A0084316B2C40016808C400C501B8
:1008700044084C07C60045084D3DC70047084B02D9
:10088000031D442C46084A020318472C482C6B2CA5
:100890004A0886004B08870041016F08810001303B
:1008A0004001CA070030CB3D6B2C253041016F065B
:1008B000031D5B2C5C2C642C4001E501E50A4D080E
:1008C000CB004C08CA006B2C4001E601E60A41014E
:1008D0006F084001E700400166080800F101F10AD5
:1008E0007430840090308500013F8A00003F0A0088
:1008F0008431F101F10A7230840090308500013FAB
:100900008A00003F0A0084310130F4000030F50015
:100910007630840090308500013F8A00003F0A0055
:100920008431F1017230840090308500013F8A00EB
:10093000003F0A008431F101F10A703084009030E8
:100940008500013F8A00003F0A008431C830F4006E
:100950000030F5007630840090308500013F8A0039
:10096000003F0A008431BD2C6A308400903085003D
:10097000013F8A00003F0A0084316E3084009030CD
:100980008500013F8A00003F0A008431003A031DC0
:10099000CA2CCB2CB42C08007A087B040319D12C68
:1009A000D22C1E2D7B08F2007A08F1008A31152224
:1009B000843172084001A3007108A2000F2D79084C
:1009C000F2007808F1007B08F4007A08F300400197
:1009D0002308F6002208F50085317425843171085A
:1009E0007204031DF42CF52CF62C202D7808013E02
:1009F000F1000030793DF2007A0884007B08850020
:100A000000084001A000A1012008F3002108F40023
:100A10008A319B2284317208F9007108F800780845
:100A200079040319142D152D1E2D780886007908D8
:100A300087000108031D1D2D1E2DDF2CF801F90173
:100A400008009631AC268531003A0319282D292D4E
:100A5000572D362D963175268531732D96317A2690
:100A60008531732D963184268531732D41012F08F0
:100A7000F8000630A03E86008701413F8A00403FD3
:100A80000A008531F900FA017A08003A0319492D64
:100A9000322D7908013A0319322D033A03192A2D10
:100AA000013A03192E2D073A0319322D322D410137
:100AB0003C101730A03E86008701403F840085012E
:100AC000810A000896316B26853101304101B80258
:100AD0000030B93B38083904031D6F2D702D722D7D
:100AE0000630732D033008000130F5020030F63B6C
:100AF000750A031D7F2D760A031D7F2D802D8F2DF6
:100B0000F101F201C52D0130F1070030F23D013055
:100B1000F3070030F43D0130F5020030F63B710878
:100B200086007208870001080319972D982DB72DAC
:100B3000730884007408850012000319A02DA12DEC
:100B4000B72D750876040319A62DA72DB72D7308A8
:100B50008400740885000008F70071088600720898
:100B60008700010877060319B62DB72D832D71086C
:100B700086007208870073088400740885000008E6
:100B80000102F100F201031CF20308002030F10021
:100B90000230840090308500013F8A00003F0A0047
:100BA00085313E30F1000230840090308500013FF5
:100BB0008A00003F0A0085313E30F1000230840097
:100BC00090308500013F8A00003F0A0085313E30A9
:100BD000F1000230840090308500013F8A00003F20
:100BE0000A0085312030F100023084009030850009
:100BF000013F8A00003F0A0085310D30F1000230CC
:100C0000840090308500013F8A00003F0A00863151
:100C10000A30F1000230840090308500013F8A00E4
:100C2000003F0A00863108004001A5002A30A900D3
:100C30000230A7000030A800400125088E31A02610
:100C40008631003A0319252E262E1C2E5A30F50027
:100C50000830F6002930F7009731872786310130B8
:100C6000F1000030F20024309731F2278631003055
:100C7000F500F6000030F700F80097319227863132
:100C800096319D26863189319C2186314001A6000E
:100C9000260303194C2E4D2E432E2608031D512EDC
:100CA000522E532E5D2EFF30A707FF30A83D270898
:100CB0002804031D5C2E5D2E1C2E290808003030F0
:100CC0004001A2003030A5003030A300201E692E64
:100CD0006A2E6D2E3130A4006F2E3030A400200813
:100CE0000F39303EA200211E762E772E7A2E31301B
:100CF000A5007C2E3030A50021080F39303EA3001E
:100D00007C304301A0004F30A1002C30A2004001F4
:100D100024084301A300400122084301A4002C3011
:100D2000A500400125084301A60040012308430116
:100D3000A7000D30A8000A30A9000A30F700A03043
:100D40008D31D825863183317F23863108003130BB
:100D500040019800990101309A005E309200EF3016
:100D60009300AF30940002307E01CE00C930C30042
:100D70000E30B800E501C401B901CF01E601BA01A6
:100D8000C501D0017E30BB00FF30C6003F30D1002E
:100D90003F30BC003F30C7003F30D2003F133E130E
:100DA0003D172830F1001630F200973106278631C2
:100DB0004E01161609307D01C50013307E019900E1
:100DC00014309A002530A4000F309C0015307D01AE
:100DD000CD000A30C6000D30CB0008008C31F32462
:100DE000863140014208F9004108F8001730FA0046
:100DF0009830FB008431CC248631780879040319BB
:100E0000022F032F072F4001C301E901222F4001C8
:100E10004208F9004108F8000030FA009830FB0061
:100E20008431CC248631780879040319182F192FBE
:100E30001F2F4001C301C30AE901E90A222F023032
:100E40004001C3004208F8004108F7008E316B26CC
:100E500086318531C6258631400143088B311E23FA
:100E6000863108004001AA0040012A088E31A026E0
:100E70008731003A03193D2F3E2F342F6B30F50098
:100E80000830F6002B30F700973187278731013083
:100E9000F1000030F20024309731F2278731003022
:100EA000F500F6000030F700F800973192278731FF
:100EB00096319D26873189319C218731013A03196A
:100EC000622F632F5B2F40012C08A7002B08A60080
:100ED0002708A600A7012B08A900A80126082804B6
:100EE000A40027082904A50008004101370886004E
:100EF000870196314226873181000130F900790857
:100F00004101B7070130B8020030B93B3808390455
:100F100003198B2F8C2F912F96315F268731053047
:100F2000B72FBC159B2F963193268731B72F96315B
:100F30008E268731B72F2C08F80021088A00200858
:100F40000A008731F900FA017A08003A0319A92F3B
:100F5000972F7908013A0319972F033A0319932F12
:100F6000013A0319932F073A0319972F972F080077
:100F70004001B0008831C0208731003A0319C12FE9
:100F8000C22FBA2F31308D312025873140013008F2
:100F9000860087013108C03F3208C13F8831D12027
:100FA0008731003A0319D52FD62FCE2F31308D310E
:100FB0004E25873140013008023E86008701310806
:100FC000C03F3208C13F8831E2208731003A03191F
:100FD000EA2FEB2FE32F31308D317C258731400113
:100FE0003008043E860087013108C03F3208C13F07
:100FF000080041013C1096313F268731043008003B
:101000008A317F228831003A0319072808280028EE
:101010004001E60167080800FB007908F6007B083C
:101020008E31062688317A08F6007B088E31062636
:101030008831080041016D086E0403192028212819
:1010400026286E088A006D080A0088317E013F1349
:1010500008004001A6000130FB002608FB025508ED
:101060007B06FE397B06D5008A3163228831080071
:101070000230F1000030F20078089731F227883111
:101080000030F500F600F7019731872788310430EA
:1010900008000130F1000030F20078089731F227A3
:1010A00088310030F500F600F70197318727883145
:1010B000043008000130F1000030F2007808973168
:1010C000F22788310030F500F600F70197318727C5
:1010D0008831023008000230F1000030F200780858
:1010E0009731F22788310030F500F600F70197318B
:1010F00087278831023008000230F1000030F2000A
:1011000078089731F22788310030F500F600F701B2
:10111000973187278831043008000130F100003012
:10112000F20078089731F22788310030F500F60098
:10113000F701973187278831023008000230F1002B
:101140000030F20078089731F22788310030F5003E
:10115000F600F70197318727883102300800013007
:10116000F1000030F20078089731F2278831003022
:10117000F500F600F7019731872788310430080021
:1011800002304001A400193086311426883101391B
:10119000031DCB28CD280130CE280030FB007B0872
:1011A000080004304001A40019308631142688312B
:1011B0000139031DDC28DE280130DF280030FB0068
:1011C0007B08080006304001A4001930863114263F
:1011D00088310139031DED28EF280130F028003057
:1011E000FB007B080800303431343234333434347B
:1011F0003534363437343834393441344234433476
:1012000044344534463400349631C4268931400193
:10121000A000A1012008F60021308E310626893178
:101220002130F70050308231F322893108004730F5
:101230004B019F000B309D00DC309C001D084001DD
:10124000C9004B011C084001C8004E018C129030AF
:101250004B019E00080034290B30F3006230890BEB
:101260002F29F30B2F2900320130F1020030F23B1D
:10127000710A031D3F29720A031D3F2940292C29A9
:1012800008004001B8013D309731E5278931400120
:101290003E08FA003D08F900383088310C208931C9
:1012A0003830F70054308231F32289310800973109
:1012B0007D27893197314C2789318631A72689319D
:1012C0009731732789318931172189318F318427EB
:1012D00089318F31C2278931080024304301A000B1
:1012E0002430A1002430A2000330F700A0308D315B
:1012F000D82589312D30F3009830F4000530F50001
:101300008C319B24893108007C08DD3E86008701F2
:101310005401190881000130F0007008FC07083002
:101320007C02031C942995299629FC010130F000C8
:1013300070084001E0070800F101F10A4101BC1802
:10134000A229A329B2293C11FF30B60096312D26DF
:1013500089319631332689319631302689314101E0
:101360003B08F10071080800780886008701403FBB
:10137000F100413FF2007808023E86008701010833
:101380009731F22789310030F500F600F7019731E7
:101390008727893102300800780886008701403F9E
:1013A000F100413FF2007808023E86008701010803
:1013B0009731F22789310030F500F600F7019731B7
:1013C0008727893102300800710872040319E9295E
:1013D000EA29FA2902307302031CEF29F029FA29BD
:1013E00072084001CD007108CC007308FF3EE80090
:1013F0000130FB290030080040015B08C53E860033
:1014000087014201190881000130F0007008400195
:10141000DB0708305B02031C0E2A0F2A102ADB01AF
:101420000130F0007008D90708007208F500710853
:10143000F4001E2A0130F1070030F23D71088400EB
:10144000720885001200031D262A272A1A2A74080A
:101450007102F1007508723BF2000800F600760890
:10146000F500750886008701F50A7208F400710816
:10147000F300F10A0319F20A730884007408850066
:101480000008C03F8908031D462A472A312A080060
:101490002D304301A0002D30A1002D30A2000D30D1
:1014A000A3000A30A4000530F700A0308D31D82504
:1014B0008A312830F3009830F4000530F5008C3183
:1014C0009B248A31080089316D218A311430F4005F
:1014D0000030F5007630840090308500013F8A00AE
:1014E000003F0A008A3140015508A1005408A000BD
:1014F00086315F268A318A3148228A3108004001CC
:1015000066080319842A852A872A01309A2A6E30B0
:10151000840090308500013F8A00003F0A008A3134
:10152000003A0319942A952A992A843107248A318A
:101530009A2A0030080071088600720887000108A6
:101540007306031DA42AA52AA62AB82A7208F60043
:101550007108F500F10A0319F20A75088600760889
:1015600087000108031DB52AB62A9B2AF101F20162
:1015700008004001A200A301A30A4101BC18C12A2E
:10158000C22AD72ABC144001A30122080319C92A80
:10159000CA2ACE2A4101BA01BA0AD12A023041012F
:1015A000BA00963136268A319731CB278A314001ED
:1015B000230808000830400162020318E02AE12AEB
:1015C000F92A6308E53E86008701010854019A0064
:1015D0000130F00070084001E30708306302031C8B
:1015E000F22AF32AF42AE3010130F0007008E2073E
:1015F000FB2A4E0119130800083040015C02031851
:10160000022B032B1B2B5D08CD3E860087010108B2
:1016100042019A000130F00070084001DD070830F7
:101620005D02031C142B152B162BDD010130F0007D
:101630007008DC071D2B4E0119120800F300730817
:10164000031D232B242B302B5B30F1000230840050
:1016500090308500013F8A00003F0A008B31402B0B
:101660007303031D342B352B402B5D30F10002300A
:10167000840090308500013F8A00003F0A008B31D2
:101680000800F400710872040319472B482B572BEC
:101690007435A03E860087017108C03F7208C13FC3
:1016A0007408AC3E8600870173088100642B743592
:1016B000A03E860087012930C03F1630C13F740824
:1016C000AC3E860087018101080005304001A4007E
:1016D0001830873132278B3140012508B7002408A4
:1016E000B60037081F39B4003608B5003508AF001A
:1016F000B0013408B100B2013108B200B1012F08C5
:101700003104B60030083204B7003708AE0036089E
:10171000AD0008009631BE268B314001A300A00128
:101720002308F60020308E3106268B312030F7005A
:101730004C308231F3228B319631A2268B31103E10
:101740004001A300A0012308F60020308E310626B8
:101750008B312030F7004C308231F3228B3108007E
:10176000400160080319B52BB62BB02B6108D53E9C
:10177000860087010108DF006108DD3E86008701E1
:101780000108F2000130F1007108E1070830610240
:10179000031CCB2BCC2BCD2BE1014E019913013037
:1017A0004001E0024E0199177208080040015908F3
:1017B0000319DB2BDC2BD62B5A08BD3E8600870194
:1017C0000108D8005A08C53E860087010108F200CA
:1017D0000130F1007108DA0708305A02031CF12BBE
:1017E000F22BF32BDA014E01991201304001D9029C
:1017F0004E01991672080800400162080319012C75
:10180000022CFC2B4E01191B062C072C0B2C7108EB
:1018100054019A00202C191340016408E53E86000B
:101820008701710881000130F2007208E407083076
:101830006402031C1C2C1D2C1E2CE4010130E2024E
:101840004E011917080040015C080319282C292CA7
:10185000232C4E01191A2D2C2E2C322C71084201EA
:101860009A00472C191240015E08CD3E8600870180
:10187000710881000130F2007208DE0708305E0254
:10188000031C432C442C452CDE010130DC024E01AC
:101890001916080041013C100230BB00572C96314C
:1018A0007F268C31712C963184268C31712C2E0838
:1018B000F8000430A03E86008701413F8A00403F87
:1018C0000A008C31F900FA017A08003A0319692CF0
:1018D000532C7908023A03194F2C013A03194F2C63
:1018E000532C080096312D268C3141013C1C792C5B
:1018F0007A2C852C9631AC268C31003A0319812C38
:10190000822C852C0F304101BA0041013A08400178
:10191000A000A101A035A10D2830200784001030BF
:10192000213D80388500013F8A00003F0A008C314C
:101930004101BA000800F901BE2C6A3084009030E1
:101940008500013F8A00003F0A008C31F8007408CE
:10195000F7007308F6007908760784007708031803
:10196000770A8500000878060319B72CB82CBA2C22
:101970000030C52C0130F6007608F90775087902A9
:10198000031CC32CC42C9D2C013008004101BC1544
:10199000D62C96317F268C31F22C963145268C310F
:1019A0000330F22C963184268C31F22C2C08F8006E
:1019B00021088A0020080A008C31F900FA017A080F
:1019C000003A0319E42CD22C7908013A0319D22CDD
:1019D000033A0319C92C013A0319C92C073A031910
:1019E000CD2CD22C08003C30F10002308400903025
:1019F0008500013F8A00003F0A008C313C30F10035
:101A00000230840090308500013F8A00003F0A00C8
:101A10008D313C30F1000230840090308500013F70
:101A20008A00003F0A008D312030F100023084002E
:101A300090308500013F8A00003F0A008D31080088
:101A40004001AD008831C0208D31003A0319292DA5
:101A50002A2D222D02304001A4001930863114268F
:101A60008D314001AE000330A400193086311426B8
:101A70008D314001AF002F08AB002E08AA000430C2
:101A8000AC002B0DAB0CAA0CAC0B412D2D08860025
:101A900087012A08C03F2B08C13F08004001AD0064
:101AA0008831D1208D31003A0319572D582D502DF2
:101AB00004304001A4001930863114268D314001D4
:101AC000AE000530A4001930863114268D31400156
:101AD000AF002F08AB002E08AA000430AC002B0D7D
:101AE000AB0CAA0CAC0B6F2D2D08860087012A08C1
:101AF000C03F2B08C13F08004001AD008831E22003
:101B00008D31003A0319852D862D7E2D063040013A
:101B1000A4001930863114268D314001AE00073003
:101B2000A4001930863114268D314001AF002F08F2
:101B3000AB002E08AA000430AC002B0DAB0CAA0C95
:101B4000AC0B9D2D2D08860087012A08C03F2B086D
:101B5000C13F08004001B30140308731B8278D31C3
:101B6000FF3040014005F9000F304105FA003330E5
:101B700088310C208D31FF3040014205F9000F30D3
:101B80004305FA00333088310C208D31FF3040019D
:101B90004405F9000F304505FA00333088310C2038
:101BA0008D313330F70058308231F3228D31080007
:101BB000FA00F901FF2D6C30840090308500013F60
:101BC0008A00003F0A008D31003A0319E82DE92D03
:101BD000FF2D79087A07F800780886000130870021
:101BE0000108F6006830840090308500013F8A00CB
:101BF000003F0A008D310130F8007808F9077708B6
:101C00007902031C042E052EDB2D0800F80078084D
:101C1000F100F2018A3115228E317108F700770840
:101C2000F807780886008701760E0F398919F03891
:101C30000F39583E840001308500000881000130D2
:101C4000F7007708F80778088600870176080F39CB
:101C5000583E840001308500000881000130F70003
:101C60007708F8077808860087018101080040019D
:101C7000A201B6014F2E3608223E84009830031888
:101C8000013E85000008B5003508F60022308E318F
:101C900006268E3101304001A0002008B607223010
:101CA000F1009830F2008A3115228E314001360859
:101CB000A000A10172082102031D602E71082002FC
:101CC000031C632E642E3B2E2230F70056308231E7
:101CD000F3228E3108007808F2007708F1002030F6
:101CE0008A312E228E314001C0018A2E4008203ECA
:101CF000860087010108F1000230840090308500E1
:101D0000013F8A00003F0A008E310130F900790856
:101D10004001C0077808F2007708F1008A311522E7
:101D20008E3140014008F900FA0172087A02031D61
:101D30009B2E71087902031C9E2E9F2E762E080082
:101D4000F100F201F20A41013C19A72EA82ED42E6F
:101D50007108B600BC103C153C100E30BA00F430CF
:101D6000B4000130B500BC152930A0001630A10028
:101D7000AC012930A2001630A300AD012930A40027
:101D80001630A500AE012930A6001630A700AF011D
:101D90002B30A8001630A900B00196312D268E31C7
:101DA0009731D8278E31F201720808004001A9004E
:101DB000052F2708A8000430A836890BDC2E280838
:101DC0000139AA002A08031DE62EE72EEF2E271858
:101DD000EA2EEB2EED2E98160D2F98120D2F2718A8
:101DE000F22EF42E0130F52E0030883129208E316C
:101DF0000D2F2708F1000230840090308500013F4C
:101E00008A00003F0A008F310D2F29084C3A031930
:101E1000D92E1F3A0319F92E0D2F08007C08D53E44
:101E200086008701810154011D1D172F182F232FB4
:101E30007C08D53E860087018114420153088A0040
:101E400052080A008F3154019D1C272F282F332F51
:101E50007C08D53E860087010115420151088A00A1
:101E600050080A008F317C08D53E860087010108A2
:101E700003193B2F3C2F432F42014F088A004E0885
:101E80000A008F31462F893184218F3108004001AB
:101E90005B08BD3E86008701810142011D1D512F57
:101EA000522F5E2F40015B08BD3E860087018114E2
:101EB000420149088A0048080A008F3142019D1CEE
:101EC000622F632F6F2F40015B08BD3E86008701A4
:101ED0000115420147088A0046080A008F31400177
:101EE0005B08BD3E8600870101080319782F792F12
:101EF000802F420145088A0044080A008F31832F51
:101F00008931FC218F3108004E0199124730F100D0
:101F10000F30F2009631DC268F314E011912FC3061
:101F2000F1000A30F2009631E2268F31083042018A
:101F30009F0090309D0024309E0040309B00033075
:101F40009C002630F1001630F2009631D0268F31F9
:101F50004F30F1001630F2009631D6268F314B30DB
:101F6000F1001630F2009631CA268F314001D801B7
:101F7000DE01DD010830DC00DB01DA01D9014E01B0
:101F8000991608004E0199130E30F1000F30F2003F
:101F90009631FA268F314E011913DA30F1000A30EA
:101FA000F200973100278F31083054019F009030A4
:101FB0009D0024309E0040309B0003309C00273061
:101FC000F1001630F2009631EE268F315730F100D5
:101FD0001630F2009631F4268F315330F10016306E
:101FE000F2009631E8268F314001DF01E401E30180
:101FF0000830E200FC01E101E0014E019917080000
:10200000D6340B3423340C340034003443341734C6
:10201000E234163447340F34DC3416346734163463
:10202000FC340A3484340F34B0340B34FC340B34B5
:10203000003400343A341734003417340E340F347B
:10204000FA34163463341634DA340A34C2340F34B2
:1020500070341634313417341834173421340534BD
:1020600075340734F9340734C6340C3475341634F7
:102070007A3416347F341634843416348934163462
:102080008E34163493341634983416344A340C345F
:1020900000340034003400340034003400340034A0
:1020A0000034003400340034003400340034003490
:1020B0000034003400340034003400340034003480
:1020C0000034003400340034003400340034003470
:1020D000B3341734553417345F3417346934173434
:1020E0009D341734A8341734BF34173420341734D0
:0420F000EE34063490
:102C4C0008000800080001300800053008004E019B
:102C5C000F1008004301901208004E0119100800D3
:102C6C00430111140800430191140800430111158C
:102C7C00080043019115080043010C0808004E019F
:102C8C000F1408004001690808008931FC219631B5
:102C9C00080042011D121D1608008931842196314D
:102CAC00080054011D121D1608004301911611163F
:102CBC000800430191121116080054011E0C013931
:102CCC00080042011E0C01390800F1007108430193
:102CDC008C0008004101BC10BB010E30080096317D
:102CEC00392696310130080096313926963102305A
:102CFC0008009631392696310130080096313C2671
:102D0C0096310030080096315F2696310530080068
:102D1C0096315B2696310A30080096315B26963147
:102D2C00093008004101BC10BB010E300800003016
:102D3C008A31B92296310800400155080139013C0D
:102D4C0008004E010C0E890C013908004301110ECC
:102D5C00890C890C013908004E010F1CB62EB72EB8
:102D6C00B22E080001304001D4000130D50008001B
:102D7C0040010C0E890C0139013C080040010C0D7E
:102D8C000C0D0139013C080072084201C5007108A4
:102D9C00C400080072084201C9007108C80008008C
:102DAC0072084201C7007108C6000800720842018F
:102DBC00CB007108CA00080072084201CD007108EE
:102DCC00CC00080072084201CF007108CE00080048
:102DDC0072084201D3007108D20008007208420147
:102DEC00D1007108D000080072084201D5007108AA
:102DFC00D400080072084201D7007108D600080000
:102E0C0072084101EE007108ED00080064008001B9
:102E1C000131890B0D2F0034FE0012001E00FE0B39
:102E2C00132F003441013C14363596316B26973103
:102E3C00033008007508F2007408F10089312B2169
:102E4C00973108007E013F1F2C2F2D2F302F8831FA
:102E5C001A209731080041013C140314360D9631A9
:102E6C006B2697310530080040016008031D3F2F89
:102E7C00412F0130422F0030080040015908031D3A
:102E8C00482F4A2F01304B2F0030080043018F018F
:102E9C000830900091014F308D00901208001430D2
:102EAC00840090308500013F8A00003F0A00973172
:102EBC0008002230840090308500013F8A00003FDA
:102ECC000A00973108001A30840090308500013FC9
:102EDC008A00003F0A0097310800603051018D00D4
:102EEC008F019101063093009001920108004F016F
:102EFC0096019701980199019A019B019C019D01F2
:102F0C0008007608F2007508F1007708F30000302D
:102F1C008B314123973108007608F2007508F100D7
:102F2C007708F30002308B3141239731080071038D
:102F3C00031DA12FA22FA52F40011A13A72F40016B
:102F4C001A1708007103031DAC2FAD2FB02F4001D1
:102F5C001810B22F4001181408007608F100163032
:102F6C00840090308500013F8A00003F0A009731B1
:102F7C000800400192137103031DC52FC62FC82FE3
:102F8C009817C92F981392170800D22F9631B22692
:102F9C0097318C31722497314101BC18D62FD72F21
:102FAC00CC2F08004301901ADC2FDD2FE42F8F016A
:102FBC000830900091014F308D0090160800FB00F6
:102FCC008B31652397317B088600870140012D08E2
:102FDC00C03F2E08C13F0800F3004101BC1DF72F74
:102FEC00F82FFF2F7308B7007208B9007108B800EA
:102FFC00BC110800533454345234453441344D34EC
:10300C005F344F34503445344E34003452346534CC
:10301C0062346F346F34743469346E3467340D3405
:10302C000A3444344934533443344F344E344E34DC
:10303C00453443345434003431342E3431342E344A
:10304C003034003445344E3444340D340A34433473
:10305C004D3444343E342034223498342234983461
:020000040001F9
:08000000FF3FFF3FFF3FFF3F00
:0A000E00EC3FFF3F9F3FFF3FFF3F25
:00000001FF
